{
  "_format": "hh-sol-artifact-1",
  "contractName": "VoteDAO",
  "sourceName": "contracts/dao.sol",
  "abi": [
    {
      "anonymous": false,
      "inputs": [
        {
          "indexed": true,
          "internalType": "address",
          "name": "initiator",
          "type": "address"
        },
        {
          "indexed": false,
          "internalType": "bytes32",
          "name": "role",
          "type": "bytes32"
        },
        {
          "indexed": false,
          "internalType": "string",
          "name": "message",
          "type": "string"
        },
        {
          "indexed": true,
          "internalType": "address",
          "name": "beneficiary",
          "type": "address"
        },
        {
          "indexed": false,
          "internalType": "uint256",
          "name": "amount",
          "type": "uint256"
        }
      ],
      "name": "Action",
      "type": "event"
    },
    {
      "anonymous": false,
      "inputs": [
        {
          "indexed": true,
          "internalType": "bytes32",
          "name": "role",
          "type": "bytes32"
        },
        {
          "indexed": true,
          "internalType": "bytes32",
          "name": "previousAdminRole",
          "type": "bytes32"
        },
        {
          "indexed": true,
          "internalType": "bytes32",
          "name": "newAdminRole",
          "type": "bytes32"
        }
      ],
      "name": "RoleAdminChanged",
      "type": "event"
    },
    {
      "anonymous": false,
      "inputs": [
        {
          "indexed": true,
          "internalType": "bytes32",
          "name": "role",
          "type": "bytes32"
        },
        {
          "indexed": true,
          "internalType": "address",
          "name": "account",
          "type": "address"
        },
        {
          "indexed": true,
          "internalType": "address",
          "name": "sender",
          "type": "address"
        }
      ],
      "name": "RoleGranted",
      "type": "event"
    },
    {
      "anonymous": false,
      "inputs": [
        {
          "indexed": true,
          "internalType": "bytes32",
          "name": "role",
          "type": "bytes32"
        },
        {
          "indexed": true,
          "internalType": "address",
          "name": "account",
          "type": "address"
        },
        {
          "indexed": true,
          "internalType": "address",
          "name": "sender",
          "type": "address"
        }
      ],
      "name": "RoleRevoked",
      "type": "event"
    },
    {
      "inputs": [],
      "name": "DEFAULT_ADMIN_ROLE",
      "outputs": [
        {
          "internalType": "bytes32",
          "name": "",
          "type": "bytes32"
        }
      ],
      "stateMutability": "view",
      "type": "function"
    },
    {
      "inputs": [],
      "name": "contribute",
      "outputs": [
        {
          "internalType": "uint256",
          "name": "",
          "type": "uint256"
        }
      ],
      "stateMutability": "payable",
      "type": "function"
    },
    {
      "inputs": [
        {
          "internalType": "string",
          "name": "title",
          "type": "string"
        },
        {
          "internalType": "string",
          "name": "description",
          "type": "string"
        },
        {
          "internalType": "address",
          "name": "beneficiary",
          "type": "address"
        },
        {
          "internalType": "uint256",
          "name": "amount",
          "type": "uint256"
        }
      ],
      "name": "createProposal",
      "outputs": [
        {
          "components": [
            {
              "internalType": "uint256",
              "name": "id",
              "type": "uint256"
            },
            {
              "internalType": "uint256",
              "name": "amount",
              "type": "uint256"
            },
            {
              "internalType": "uint256",
              "name": "duration",
              "type": "uint256"
            },
            {
              "internalType": "uint256",
              "name": "upvotes",
              "type": "uint256"
            },
            {
              "internalType": "uint256",
              "name": "downvotes",
              "type": "uint256"
            },
            {
              "internalType": "string",
              "name": "title",
              "type": "string"
            },
            {
              "internalType": "string",
              "name": "description",
              "type": "string"
            },
            {
              "internalType": "bool",
              "name": "passed",
              "type": "bool"
            },
            {
              "internalType": "bool",
              "name": "paid",
              "type": "bool"
            },
            {
              "internalType": "address payable",
              "name": "beneficiary",
              "type": "address"
            },
            {
              "internalType": "address",
              "name": "proposer",
              "type": "address"
            },
            {
              "internalType": "address",
              "name": "executor",
              "type": "address"
            }
          ],
          "internalType": "struct VoteDAO.ProposalStruct",
          "name": "",
          "type": "tuple"
        }
      ],
      "stateMutability": "nonpayable",
      "type": "function"
    },
    {
      "inputs": [],
      "name": "daoBalance",
      "outputs": [
        {
          "internalType": "uint256",
          "name": "",
          "type": "uint256"
        }
      ],
      "stateMutability": "view",
      "type": "function"
    },
    {
      "inputs": [],
      "name": "getBalance",
      "outputs": [
        {
          "internalType": "uint256",
          "name": "",
          "type": "uint256"
        }
      ],
      "stateMutability": "view",
      "type": "function"
    },
    {
      "inputs": [],
      "name": "getContributorBalance",
      "outputs": [
        {
          "internalType": "uint256",
          "name": "",
          "type": "uint256"
        }
      ],
      "stateMutability": "view",
      "type": "function"
    },
    {
      "inputs": [
        {
          "internalType": "uint256",
          "name": "proposalId",
          "type": "uint256"
        }
      ],
      "name": "getProposal",
      "outputs": [
        {
          "components": [
            {
              "internalType": "uint256",
              "name": "id",
              "type": "uint256"
            },
            {
              "internalType": "uint256",
              "name": "amount",
              "type": "uint256"
            },
            {
              "internalType": "uint256",
              "name": "duration",
              "type": "uint256"
            },
            {
              "internalType": "uint256",
              "name": "upvotes",
              "type": "uint256"
            },
            {
              "internalType": "uint256",
              "name": "downvotes",
              "type": "uint256"
            },
            {
              "internalType": "string",
              "name": "title",
              "type": "string"
            },
            {
              "internalType": "string",
              "name": "description",
              "type": "string"
            },
            {
              "internalType": "bool",
              "name": "passed",
              "type": "bool"
            },
            {
              "internalType": "bool",
              "name": "paid",
              "type": "bool"
            },
            {
              "internalType": "address payable",
              "name": "beneficiary",
              "type": "address"
            },
            {
              "internalType": "address",
              "name": "proposer",
              "type": "address"
            },
            {
              "internalType": "address",
              "name": "executor",
              "type": "address"
            }
          ],
          "internalType": "struct VoteDAO.ProposalStruct",
          "name": "",
          "type": "tuple"
        }
      ],
      "stateMutability": "view",
      "type": "function"
    },
    {
      "inputs": [],
      "name": "getProposals",
      "outputs": [
        {
          "components": [
            {
              "internalType": "uint256",
              "name": "id",
              "type": "uint256"
            },
            {
              "internalType": "uint256",
              "name": "amount",
              "type": "uint256"
            },
            {
              "internalType": "uint256",
              "name": "duration",
              "type": "uint256"
            },
            {
              "internalType": "uint256",
              "name": "upvotes",
              "type": "uint256"
            },
            {
              "internalType": "uint256",
              "name": "downvotes",
              "type": "uint256"
            },
            {
              "internalType": "string",
              "name": "title",
              "type": "string"
            },
            {
              "internalType": "string",
              "name": "description",
              "type": "string"
            },
            {
              "internalType": "bool",
              "name": "passed",
              "type": "bool"
            },
            {
              "internalType": "bool",
              "name": "paid",
              "type": "bool"
            },
            {
              "internalType": "address payable",
              "name": "beneficiary",
              "type": "address"
            },
            {
              "internalType": "address",
              "name": "proposer",
              "type": "address"
            },
            {
              "internalType": "address",
              "name": "executor",
              "type": "address"
            }
          ],
          "internalType": "struct VoteDAO.ProposalStruct[]",
          "name": "props",
          "type": "tuple[]"
        }
      ],
      "stateMutability": "view",
      "type": "function"
    },
    {
      "inputs": [
        {
          "internalType": "bytes32",
          "name": "role",
          "type": "bytes32"
        }
      ],
      "name": "getRoleAdmin",
      "outputs": [
        {
          "internalType": "bytes32",
          "name": "",
          "type": "bytes32"
        }
      ],
      "stateMutability": "view",
      "type": "function"
    },
    {
      "inputs": [],
      "name": "getStakeholderBalance",
      "outputs": [
        {
          "internalType": "uint256",
          "name": "",
          "type": "uint256"
        }
      ],
      "stateMutability": "view",
      "type": "function"
    },
    {
      "inputs": [],
      "name": "getStakeholderVotes",
      "outputs": [
        {
          "internalType": "uint256[]",
          "name": "",
          "type": "uint256[]"
        }
      ],
      "stateMutability": "view",
      "type": "function"
    },
    {
      "inputs": [
        {
          "internalType": "uint256",
          "name": "proposalId",
          "type": "uint256"
        }
      ],
      "name": "getVotesOf",
      "outputs": [
        {
          "components": [
            {
              "internalType": "address",
              "name": "voter",
              "type": "address"
            },
            {
              "internalType": "uint256",
              "name": "timestamp",
              "type": "uint256"
            },
            {
              "internalType": "bool",
              "name": "choosen",
              "type": "bool"
            }
          ],
          "internalType": "struct VoteDAO.VotedStruct[]",
          "name": "",
          "type": "tuple[]"
        }
      ],
      "stateMutability": "view",
      "type": "function"
    },
    {
      "inputs": [
        {
          "internalType": "bytes32",
          "name": "role",
          "type": "bytes32"
        },
        {
          "internalType": "address",
          "name": "account",
          "type": "address"
        }
      ],
      "name": "grantRole",
      "outputs": [],
      "stateMutability": "nonpayable",
      "type": "function"
    },
    {
      "inputs": [
        {
          "internalType": "bytes32",
          "name": "role",
          "type": "bytes32"
        },
        {
          "internalType": "address",
          "name": "account",
          "type": "address"
        }
      ],
      "name": "hasRole",
      "outputs": [
        {
          "internalType": "bool",
          "name": "",
          "type": "bool"
        }
      ],
      "stateMutability": "view",
      "type": "function"
    },
    {
      "inputs": [],
      "name": "isContributor",
      "outputs": [
        {
          "internalType": "bool",
          "name": "",
          "type": "bool"
        }
      ],
      "stateMutability": "view",
      "type": "function"
    },
    {
      "inputs": [],
      "name": "isStakeholder",
      "outputs": [
        {
          "internalType": "bool",
          "name": "",
          "type": "bool"
        }
      ],
      "stateMutability": "view",
      "type": "function"
    },
    {
      "inputs": [],
      "name": "nextProposal",
      "outputs": [
        {
          "internalType": "uint256",
          "name": "",
          "type": "uint256"
        }
      ],
      "stateMutability": "view",
      "type": "function"
    },
    {
      "inputs": [
        {
          "internalType": "uint256",
          "name": "proposalId",
          "type": "uint256"
        }
      ],
      "name": "payBeneficiary",
      "outputs": [
        {
          "internalType": "uint256",
          "name": "",
          "type": "uint256"
        }
      ],
      "stateMutability": "nonpayable",
      "type": "function"
    },
    {
      "inputs": [
        {
          "internalType": "uint256",
          "name": "proposalId",
          "type": "uint256"
        },
        {
          "internalType": "bool",
          "name": "choosen",
          "type": "bool"
        }
      ],
      "name": "performVote",
      "outputs": [
        {
          "components": [
            {
              "internalType": "address",
              "name": "voter",
              "type": "address"
            },
            {
              "internalType": "uint256",
              "name": "timestamp",
              "type": "uint256"
            },
            {
              "internalType": "bool",
              "name": "choosen",
              "type": "bool"
            }
          ],
          "internalType": "struct VoteDAO.VotedStruct",
          "name": "",
          "type": "tuple"
        }
      ],
      "stateMutability": "nonpayable",
      "type": "function"
    },
    {
      "inputs": [
        {
          "internalType": "bytes32",
          "name": "role",
          "type": "bytes32"
        },
        {
          "internalType": "address",
          "name": "account",
          "type": "address"
        }
      ],
      "name": "renounceRole",
      "outputs": [],
      "stateMutability": "nonpayable",
      "type": "function"
    },
    {
      "inputs": [
        {
          "internalType": "bytes32",
          "name": "role",
          "type": "bytes32"
        },
        {
          "internalType": "address",
          "name": "account",
          "type": "address"
        }
      ],
      "name": "revokeRole",
      "outputs": [],
      "stateMutability": "nonpayable",
      "type": "function"
    },
    {
      "inputs": [
        {
          "internalType": "bytes4",
          "name": "interfaceId",
          "type": "bytes4"
        }
      ],
      "name": "supportsInterface",
      "outputs": [
        {
          "internalType": "bool",
          "name": "",
          "type": "bool"
        }
      ],
      "stateMutability": "view",
      "type": "function"
    }
  ],
  "bytecode": "0x6101006040527fa0bb1af1c90aa52ed052b92714ff0087008cc720049bf1af77cca2600b31e80c6080527ff4bb84e1768dd286358a736d195a0b228621173f655a73b89bf8b191ed0ba07d60a052666a94d74f43000060c05260b460e05234801561006957600080fd5b50600160005560805160a05160c05160e0516123836100fc6000396000610c75015260006114ce01526000818161048b0152818161064a01528181610b3701528181610bb801528181610f5f0152818161105c01528181611199015281816114860152818161152a01526116390152600081816107a901528181610cc20152818161155401526115a801526123836000f3fe6080604052600436106101355760003560e01c80637cdc2eb7116100ab578063bd9728161161006f578063bd97281614610371578063c02146ac14610387578063c7f758a8146103ab578063d547741f146103cb578063d6cc8016146103eb578063d7bb99ba1461040f57600080fd5b80637cdc2eb7146102c057806391d14854146102ed578063a217fddf1461030d578063a22f1db714610322578063b31f111c1461034457600080fd5b806336568abe116100fd57806336568abe146102125780633cdb48c21461023257806362564c481461024757806369a136dc146102695780636a80d84d146102965780636ae3638c146102ab57600080fd5b806301ffc9a71461013a578063119c37c81461016f57806312065fe01461019d578063248a9ca3146101bf5780632f2ff15d146101f0575b600080fd5b34801561014657600080fd5b5061015a610155366004611c7b565b610417565b60405190151581526020015b60405180910390f35b34801561017b57600080fd5b5061018f61018a366004611ca5565b61044e565b604051908152602001610166565b3480156101a957600080fd5b503360009081526007602052604090205461018f565b3480156101cb57600080fd5b5061018f6101da366004611ca5565b6000908152600160208190526040909120015490565b3480156101fc57600080fd5b5061021061020b366004611cda565b6106e0565b005b34801561021e57600080fd5b5061021061022d366004611cda565b61070b565b34801561023e57600080fd5b5061018f610789565b34801561025357600080fd5b5061025c610805565b6040516101669190611e16565b34801561027557600080fd5b50610289610284366004611ca5565b610a60565b6040516101669190611e78565b3480156102a257600080fd5b5061018f610afa565b3480156102b757600080fd5b5060025461018f565b3480156102cc57600080fd5b506102e06102db366004611f2e565b610b92565b6040516101669190611fb7565b3480156102f957600080fd5b5061015a610308366004611cda565b610ef7565b34801561031957600080fd5b5061018f600081565b34801561032e57600080fd5b50610337610f22565b6040516101669190611fca565b34801561035057600080fd5b5061036461035f366004612002565b611004565b6040516101669190612037565b34801561037d57600080fd5b5061018f60035481565b34801561039357600080fd5b5033600090815260086020526040902054151561015a565b3480156103b757600080fd5b506102e06103c6366004611ca5565b61122f565b3480156103d757600080fd5b506102106103e6366004611cda565b611400565b3480156103f757600080fd5b5033600090815260076020526040902054151561015a565b61018f611426565b60006001600160e01b03198216637965db0b60e01b148061044857506301ffc9a760e01b6001600160e01b03198316145b92915050565b60006040518060400160405280601f81526020017f556e617574686f72697a65643a205374616b65686f6c64657273206f6e6c79008152506104b07f000000000000000000000000000000000000000000000000000000000000000033610ef7565b81906104d85760405162461bcd60e51b81526004016104cf9190612063565b60405180910390fd5b506104e16116b1565b6000838152600460205260409020600181015460035410156105395760405162461bcd60e51b8152602060048201526011602482015270125b9cdd59999a58da595b9d08199d5b99607a1b60448201526064016104cf565b6007810154610100900460ff16156105895760405162461bcd60e51b81526020600482015260136024820152725061796d656e742073656e74206265666f726560681b60448201526064016104cf565b80600401548160030154116105d55760405162461bcd60e51b8152602060048201526012602482015271496e73756666696369656e7420766f74657360701b60448201526064016104cf565b600781015460018201546105f8916201000090046001600160a01b03169061170a565b5060078101805461ff0019166101001790556009810180546001600160a01b0319163317905560018101546003805460009061063590849061208c565b909155505060078101546001820154604080517f000000000000000000000000000000000000000000000000000000000000000081526060602082018190526012908201527114105653515395081514905394d19154915160721b608082015290810191909152620100009091046001600160a01b03169033906000805160206122ff8339815191529060a00160405180910390a36003549250506106da6001600055565b50919050565b600082815260016020819052604090912001546106fc816117a9565b61070683836117b6565b505050565b6001600160a01b038116331461077b5760405162461bcd60e51b815260206004820152602f60248201527f416363657373436f6e74726f6c3a2063616e206f6e6c792072656e6f756e636560448201526e103937b632b9903337b91039b2b63360891b60648201526084016104cf565b6107858282611821565b5050565b60006040518060600160405280602181526020016122de602191396107ce7f000000000000000000000000000000000000000000000000000000000000000033610ef7565b81906107ed5760405162461bcd60e51b81526004016104cf9190612063565b503360009081526007602052604090205491505b5090565b606060025467ffffffffffffffff8111156108225761082261209f565b60405190808252806020026020018201604052801561085b57816020015b610848611bfb565b8152602001906001900390816108405790505b50905060005b60025481101561080157600460008281526020019081526020016000206040518061018001604052908160008201548152602001600182015481526020016002820154815260200160038201548152602001600482015481526020016005820180546108cc906120b5565b80601f01602080910402602001604051908101604052809291908181526020018280546108f8906120b5565b80156109455780601f1061091a57610100808354040283529160200191610945565b820191906000526020600020905b81548152906001019060200180831161092857829003601f168201915b5050505050815260200160068201805461095e906120b5565b80601f016020809104026020016040519081016040528092919081815260200182805461098a906120b5565b80156109d75780601f106109ac576101008083540402835291602001916109d7565b820191906000526020600020905b8154815290600101906020018083116109ba57829003601f168201915b5050509183525050600782015460ff80821615156020840152610100820416151560408301526001600160a01b03620100009091048116606083015260088301548116608083015260099092015490911660a0909101528251839083908110610a4257610a426120e9565b60200260200101819052508080610a58906120ff565b915050610861565b606060066000838152602001908152602001600020805480602002602001604051908101604052809291908181526020016000905b82821015610aef576000848152602090819020604080516060810182526003860290920180546001600160a01b031683526001808201548486015260029091015460ff161515918301919091529083529092019101610a95565b505050509050919050565b60006040518060400160405280601f81526020017f556e617574686f72697a65643a206e6f742061207374616b65686f6c64657200815250610b5c7f000000000000000000000000000000000000000000000000000000000000000033610ef7565b8190610b7b5760405162461bcd60e51b81526004016104cf9190612063565b503360009081526008602052604090205491505090565b610b9a611bfb565b6040518060600160405280602f815260200161231f602f9139610bdd7f000000000000000000000000000000000000000000000000000000000000000033610ef7565b8190610bfc5760405162461bcd60e51b81526004016104cf9190612063565b5060025460008181526004602052604090208181556008810180546001600160a01b0319163317905560058101610c348a8c83612166565b5060068101610c44888a83612166565b5060078101805462010000600160b01b031916620100006001600160a01b0389160217905560018101859055610ca07f000000000000000000000000000000000000000000000000000000000000000063ffffffff1642612227565b6002808301919091558054906000610cb7836120ff565b9091555050604080517f00000000000000000000000000000000000000000000000000000000000000008152606060208201819052600f908201526e141493d413d4d0530814905254d151608a1b60808201529081018690526001600160a01b0387169033906000805160206122ff8339815191529060a00160405180910390a380604051806101800160405290816000820154815260200160018201548152602001600282015481526020016003820154815260200160048201548152602001600582018054610d87906120b5565b80601f0160208091040260200160405190810160405280929190818152602001828054610db3906120b5565b8015610e005780601f10610dd557610100808354040283529160200191610e00565b820191906000526020600020905b815481529060010190602001808311610de357829003601f168201915b50505050508152602001600682018054610e19906120b5565b80601f0160208091040260200160405190810160405280929190818152602001828054610e45906120b5565b8015610e925780601f10610e6757610100808354040283529160200191610e92565b820191906000526020600020905b815481529060010190602001808311610e7557829003601f168201915b5050509183525050600782015460ff80821615156020840152610100820416151560408301526201000090046001600160a01b03908116606083015260088301548116608083015260099092015490911660a0909101529a9950505050505050505050565b60009182526001602090815260408084206001600160a01b0393909316845291905290205460ff1690565b60606040518060400160405280601f81526020017f556e617574686f72697a65643a206e6f742061207374616b65686f6c64657200815250610f847f000000000000000000000000000000000000000000000000000000000000000033610ef7565b8190610fa35760405162461bcd60e51b81526004016104cf9190612063565b503360009081526005602090815260409182902080548351818402810184019094528084529091830182828015610ff957602002820191906000526020600020905b815481526020019060010190808311610fe5575b505050505091505090565b60408051606081018252600080825260208201819052918101919091526040518060400160405280601f81526020017f556e617574686f72697a65643a205374616b65686f6c64657273206f6e6c79008152506110817f000000000000000000000000000000000000000000000000000000000000000033610ef7565b81906110a05760405162461bcd60e51b81526004016104cf9190612063565b5060008481526004602052604090206110b881611888565b83156110da576003810180549060006110d0836120ff565b91905055506110f2565b6004810180549060006110ec836120ff565b91905055505b336000818152600560209081526040808320855481546001808201845592865284862001558554845260068352818420825160608082018552878252428287019081528c151583870190815284548087018655948952978790209251600390940290920180546001600160a01b0319166001600160a01b0394851617815591518285015595516002909101805460ff191691151591909117905560078701549187015483517f00000000000000000000000000000000000000000000000000000000000000008152948501869052600d958501959095526c50524f504f53414c20564f544560981b6080850152918301939093526201000090920490911691906000805160206122ff8339815191529060a00160405180910390a35050604080516060810182523381524260208201529215159083015250919050565b611237611bfb565b60046000838152602001908152602001600020604051806101800160405290816000820154815260200160018201548152602001600282015481526020016003820154815260200160048201548152602001600582018054611298906120b5565b80601f01602080910402602001604051908101604052809291908181526020018280546112c4906120b5565b80156113115780601f106112e657610100808354040283529160200191611311565b820191906000526020600020905b8154815290600101906020018083116112f457829003601f168201915b5050505050815260200160068201805461132a906120b5565b80601f0160208091040260200160405190810160405280929190818152602001828054611356906120b5565b80156113a35780601f10611378576101008083540402835291602001916113a3565b820191906000526020600020905b81548152906001019060200180831161138657829003601f168201915b5050509183525050600782015460ff80821615156020840152610100820416151560408301526001600160a01b03620100009091048116606083015260088301548116608083015260099092015490911660a09091015292915050565b6000828152600160208190526040909120015461141c816117a9565b6107068383611821565b60008034116114815760405162461bcd60e51b815260206004820152602160248201527f436f6e747269627574696e67207a65726f206973206e6f7420616c6c6f7765646044820152601760f91b60648201526084016104cf565b6114ab7f000000000000000000000000000000000000000000000000000000000000000033610ef7565b6115d357336000908152600760205260408120546114ca903490612227565b90507f0000000000000000000000000000000000000000000000000000000000000000811061157e5733600090815260086020908152604080832084905560079091528120805434929061151f908490612227565b9091555061154f90507f0000000000000000000000000000000000000000000000000000000000000000336119e3565b6115797f0000000000000000000000000000000000000000000000000000000000000000336119e3565b6115cd565b336000908152600760205260408120805434929061159d908490612227565b909155506115cd90507f0000000000000000000000000000000000000000000000000000000000000000336119e3565b5061161c565b33600090815260076020526040812080543492906115f2908490612227565b90915550503360009081526008602052604081208054349290611616908490612227565b90915550505b346003600082825461162e9190612227565b9091555050604080517f000000000000000000000000000000000000000000000000000000000000000081526060602082018190526015908201527410d3d39514925095551253d388149150d152559151605a1b608082015234818301529051309133916000805160206122ff8339815191529181900360a00190a35060035490565b6002600054036117035760405162461bcd60e51b815260206004820152601f60248201527f5265656e7472616e637947756172643a207265656e7472616e742063616c6c0060448201526064016104cf565b6002600055565b600080836001600160a01b03168360405160006040518083038185875af1925050503d8060008114611758576040519150601f19603f3d011682016040523d82523d6000602084013e61175d565b606091505b505090508061179f5760405162461bcd60e51b815260206004820152600e60248201526d14185e5b595b9d0819985a5b195960921b60448201526064016104cf565b5060019392505050565b6117b381336119ed565b50565b6117c08282610ef7565b6107855760008281526001602081815260408084206001600160a01b0386168086529252808420805460ff19169093179092559051339285917f2f8788117e7eff1d82e926ec794901d17c78024a50270940304540a733656f0d9190a45050565b61182b8282610ef7565b156107855760008281526001602090815260408083206001600160a01b0385168085529252808320805460ff1916905551339285917ff6391f5c32d9c69d2a47ea670b442974b53935d1edc7fd64eb21e047a839171b9190a45050565b600781015460ff168061189f575042816002015411155b156118fb5760078101805460ff1916600117905560405162461bcd60e51b815260206004820152601960248201527f50726f706f73616c206475726174696f6e20657870697265640000000000000060448201526064016104cf565b3360009081526005602090815260408083208054825181850281018501909352808352919290919083018282801561195257602002820191906000526020600020905b81548152602001906001019080831161193e575b5050505050905060005b815181101561070657818181518110611977576119776120e9565b60200260200101518360000154036119d15760405162461bcd60e51b815260206004820152601960248201527f446f75626c6520766f74696e67206e6f7420616c6c6f7765640000000000000060448201526064016104cf565b806119db816120ff565b91505061195c565b61078582826117b6565b6119f78282610ef7565b61078557611a0481611a46565b611a0f836020611a58565b604051602001611a2092919061223a565b60408051601f198184030181529082905262461bcd60e51b82526104cf91600401612063565b60606104486001600160a01b03831660145b60606000611a678360026122af565b611a72906002612227565b67ffffffffffffffff811115611a8a57611a8a61209f565b6040519080825280601f01601f191660200182016040528015611ab4576020820181803683370190505b509050600360fc1b81600081518110611acf57611acf6120e9565b60200101906001600160f81b031916908160001a905350600f60fb1b81600181518110611afe57611afe6120e9565b60200101906001600160f81b031916908160001a9053506000611b228460026122af565b611b2d906001612227565b90505b6001811115611ba5576f181899199a1a9b1b9c1cb0b131b232b360811b85600f1660108110611b6157611b616120e9565b1a60f81b828281518110611b7757611b776120e9565b60200101906001600160f81b031916908160001a90535060049490941c93611b9e816122c6565b9050611b30565b508315611bf45760405162461bcd60e51b815260206004820181905260248201527f537472696e67733a20686578206c656e67746820696e73756666696369656e7460448201526064016104cf565b9392505050565b6040518061018001604052806000815260200160008152602001600081526020016000815260200160008152602001606081526020016060815260200160001515815260200160001515815260200160006001600160a01b0316815260200160006001600160a01b0316815260200160006001600160a01b031681525090565b600060208284031215611c8d57600080fd5b81356001600160e01b031981168114611bf457600080fd5b600060208284031215611cb757600080fd5b5035919050565b80356001600160a01b0381168114611cd557600080fd5b919050565b60008060408385031215611ced57600080fd5b82359150611cfd60208401611cbe565b90509250929050565b60005b83811015611d21578181015183820152602001611d09565b50506000910152565b60008151808452611d42816020860160208601611d06565b601f01601f19169290920160200192915050565b6000610180825184526020830151602085015260408301516040850152606083015160608501526080830151608085015260a08301518160a0860152611d9e82860182611d2a565b91505060c083015184820360c0860152611db88282611d2a565b91505060e0830151611dce60e086018215159052565b5061010083810151151590850152610120808401516001600160a01b039081169186019190915261014080850151821690860152610160938401511692909301919091525090565b6000602080830181845280855180835260408601915060408160051b870101925083870160005b82811015611e6b57603f19888603018452611e59858351611d56565b94509285019290850190600101611e3d565b5092979650505050505050565b6020808252825182820181905260009190848201906040850190845b81811015611ed957611ec683855180516001600160a01b03168252602080820151908301526040908101511515910152565b9284019260609290920191600101611e94565b50909695505050505050565b60008083601f840112611ef757600080fd5b50813567ffffffffffffffff811115611f0f57600080fd5b602083019150836020828501011115611f2757600080fd5b9250929050565b60008060008060008060808789031215611f4757600080fd5b863567ffffffffffffffff80821115611f5f57600080fd5b611f6b8a838b01611ee5565b90985096506020890135915080821115611f8457600080fd5b50611f9189828a01611ee5565b9095509350611fa4905060408801611cbe565b9150606087013590509295509295509295565b602081526000611bf46020830184611d56565b6020808252825182820181905260009190848201906040850190845b81811015611ed957835183529284019291840191600101611fe6565b6000806040838503121561201557600080fd5b823591506020830135801515811461202c57600080fd5b809150509250929050565b81516001600160a01b031681526020808301519082015260408083015115159082015260608101610448565b602081526000611bf46020830184611d2a565b634e487b7160e01b600052601160045260246000fd5b8181038181111561044857610448612076565b634e487b7160e01b600052604160045260246000fd5b600181811c908216806120c957607f821691505b6020821081036106da57634e487b7160e01b600052602260045260246000fd5b634e487b7160e01b600052603260045260246000fd5b60006001820161211157612111612076565b5060010190565b601f82111561070657600081815260208120601f850160051c8101602086101561213f5750805b601f850160051c820191505b8181101561215e5782815560010161214b565b505050505050565b67ffffffffffffffff83111561217e5761217e61209f565b6121928361218c83546120b5565b83612118565b6000601f8411600181146121c657600085156121ae5750838201355b600019600387901b1c1916600186901b178355612220565b600083815260209020601f19861690835b828110156121f757868501358255602094850194600190920191016121d7565b50868210156122145760001960f88860031b161c19848701351681555b505060018560011b0183555b5050505050565b8082018082111561044857610448612076565b7f416363657373436f6e74726f6c3a206163636f756e7420000000000000000000815260008351612272816017850160208801611d06565b7001034b99036b4b9b9b4b733903937b6329607d1b60179184019182015283516122a3816028840160208801611d06565b01602801949350505050565b808202811582820484141761044857610448612076565b6000816122d5576122d5612076565b50600019019056fe44656e6965643a2055736572206973206e6f74206120636f6e7472696275746f72a596782d699d74613fcbf59d33e720baabd313d6be9c95e2268f305430305eb750726f706f73616c204372656174696f6e20416c6c6f77656420666f72205374616b65686f6c64657273206f6e6c79a264697066735822122091083fc41b55f4036d9f3f2c77b1ac7917181c54e3bfa995b75fe6fbfc80e99464736f6c63430008130033",
  "linkReferences": {},
  "deployedLinkReferences": {}
}